{
  "contractName": "BusinessContract",
  "abi": [
    {
      "inputs": [],
      "payable": false,
      "stateMutability": "nonpayable",
      "type": "constructor",
      "signature": "constructor"
    },
    {
      "constant": false,
      "inputs": [
        {
          "name": "_name",
          "type": "string"
        },
        {
          "name": "_height",
          "type": "uint256"
        },
        {
          "name": "_weight",
          "type": "uint256"
        }
      ],
      "name": "addPerson",
      "outputs": [],
      "payable": false,
      "stateMutability": "nonpayable",
      "type": "function",
      "signature": "0xabbc0a8a"
    },
    {
      "constant": true,
      "inputs": [],
      "name": "getPerson",
      "outputs": [
        {
          "name": "_name",
          "type": "string"
        },
        {
          "name": "_height",
          "type": "uint256"
        },
        {
          "name": "_weight",
          "type": "uint256"
        }
      ],
      "payable": false,
      "stateMutability": "view",
      "type": "function",
      "signature": "0x8ec4dc95"
    },
    {
      "constant": true,
      "inputs": [
        {
          "name": "slot_id",
          "type": "bytes32"
        }
      ],
      "name": "getSlotData",
      "outputs": [
        {
          "name": "",
          "type": "uint256"
        }
      ],
      "payable": false,
      "stateMutability": "view",
      "type": "function",
      "signature": "0x80cd557e"
    },
    {
      "constant": true,
      "inputs": [
        {
          "name": "slot",
          "type": "uint256"
        },
        {
          "name": "key",
          "type": "uint256"
        },
        {
          "name": "offset",
          "type": "uint256"
        }
      ],
      "name": "mapLocation",
      "outputs": [
        {
          "name": "",
          "type": "uint256"
        }
      ],
      "payable": false,
      "stateMutability": "pure",
      "type": "function",
      "signature": "0x910896e3"
    },
    {
      "constant": false,
      "inputs": [],
      "name": "kill",
      "outputs": [],
      "payable": false,
      "stateMutability": "nonpayable",
      "type": "function",
      "signature": "0x41c0e1b5"
    }
  ],
  "bytecode": "0x608060405234801561001057600080fd5b506105fa806100206000396000f3fe60806040526004361061006d576000357c0100000000000000000000000000000000000000000000000000000000900463ffffffff16806341c0e1b51461007257806380cd557e146100895780638ec4dc95146100d8578063910896e314610176578063abbc0a8a146101d9575b600080fd5b34801561007e57600080fd5b50610087610273565b005b34801561009557600080fd5b506100c2600480360360208110156100ac57600080fd5b810190808035906020019092919050505061028c565b6040518082815260200191505060405180910390f35b3480156100e457600080fd5b506100ed61029c565b6040518080602001848152602001838152602001828103825285818151815260200191508051906020019080838360005b8381101561013957808201518184015260208101905061011e565b50505050905090810190601f1680156101665780820380516001836020036101000a031916815260200191505b5094505050505060405180910390f35b34801561018257600080fd5b506101c36004803603606081101561019957600080fd5b81019080803590602001909291908035906020019092919080359060200190929190505050610410565b6040518082815260200191505060405180910390f35b3480156101e557600080fd5b50610271600480360360608110156101fc57600080fd5b810190808035906020019064010000000081111561021957600080fd5b82018360208201111561022b57600080fd5b8035906020019184600183028401116401000000008311171561024d57600080fd5b90919293919293908035906020019092919080359060200190929190505050610450565b005b3373ffffffffffffffffffffffffffffffffffffffff16ff5b6000808254905080915050919050565b6060600080600160003373ffffffffffffffffffffffffffffffffffffffff1673ffffffffffffffffffffffffffffffffffffffff168152602001908152602001600020600001600160003373ffffffffffffffffffffffffffffffffffffffff1673ffffffffffffffffffffffffffffffffffffffff16815260200190815260200160002060010154600160003373ffffffffffffffffffffffffffffffffffffffff1673ffffffffffffffffffffffffffffffffffffffff16815260200190815260200160002060020154828054600181600116156101000203166002900480601f0160208091040260200160405190810160405280929190818152602001828054600181600116156101000203166002900480156103fe5780601f106103d3576101008083540402835291602001916103fe565b820191906000526020600020905b8154815290600101906020018083116103e157829003601f168201915b50505050509250925092509250909192565b6000818385604051602001808381526020018281526020019250505060405160208183030381529060405280519060200120600190040190509392505050565b60606040519081016040528085858080601f016020809104026020016040519081016040528093929190818152602001838380828437600081840152601f19601f82011690508083019250505050505050815260200183815260200182815250600160003373ffffffffffffffffffffffffffffffffffffffff1673ffffffffffffffffffffffffffffffffffffffff168152602001908152602001600020600082015181600001908051906020019061050b929190610529565b50602082015181600101556040820151816002015590505050505050565b828054600181600116156101000203166002900490600052602060002090601f016020900481019282601f1061056a57805160ff1916838001178555610598565b82800160010185558215610598579182015b8281111561059757825182559160200191906001019061057c565b5b5090506105a591906105a9565b5090565b6105cb91905b808211156105c75760008160009055506001016105af565b5090565b9056fea165627a7a72305820455d276496c1b1e7545d86ebec60661e9e9427ca8877eb3c0cad8c58868b486a0029",
  "source": "pragma solidity ^0.5.0;\n\ncontract BusinessContract {\n  // プロキシコントラクトの変数のslot割り当て\n  address impl;\n\n  struct Person {\n    string name;\n    uint256 height;\n    uint256 weight;\n  }\n\n  mapping (address => Person) persons;\n\n  constructor() public {\n  }\n\n  function addPerson(string calldata _name, uint256 _height, uint256 _weight) external {\n    persons[msg.sender] = Person(_name, _height, _weight);\n  }\n\n  function getPerson() external view returns (string memory _name, uint256 _height, uint256 _weight) {\n    return (\n      persons[msg.sender].name,\n      persons[msg.sender].height,\n      persons[msg.sender].weight\n    );\n  }\n\n  function getSlotData(bytes32 slot_id) public view returns (uint256){\n    uint r;\n    assembly {\n      r := sload(slot_id) //we load the slot number i\n    }\n    return uint(r);\n  }\n\n  function mapLocation(uint256 slot, uint256 key, uint256 offset) public pure returns (uint256) {\n    return uint256(keccak256(abi.encodePacked(key, slot))) + offset;\n  }\n\n  function kill() public {\n    selfdestruct(msg.sender);\n  }\n}",
  "sourcePath": "C:\\Users\\NaotoHama\\Documents\\blockchain\\sample-upgradable-contract\\contracts\\BusinessContract.sol",
  "compiler": {
    "name": "solc",
    "version": "0.5.0+commit.1d4f565a.Emscripten.clang"
  },
  "schemaVersion": "3.0.6",
  "updatedAt": "2019-04-13T14:42:51.815Z",
  "devdoc": {
    "methods": {}
  },
  "userdoc": {
    "methods": {}
  }
}