{
  "contractName": "BusinessContract2",
  "abi": [
    {
      "inputs": [],
      "payable": false,
      "stateMutability": "nonpayable",
      "type": "constructor"
    },
    {
      "constant": false,
      "inputs": [
        {
          "name": "_name",
          "type": "string"
        },
        {
          "name": "_height",
          "type": "uint256"
        },
        {
          "name": "_weight",
          "type": "uint256"
        },
        {
          "name": "_age",
          "type": "uint256"
        }
      ],
      "name": "addPerson_v2",
      "outputs": [],
      "payable": false,
      "stateMutability": "nonpayable",
      "type": "function"
    },
    {
      "constant": true,
      "inputs": [],
      "name": "getPerson_v2",
      "outputs": [
        {
          "name": "_name",
          "type": "string"
        },
        {
          "name": "_height",
          "type": "uint256"
        },
        {
          "name": "_weight",
          "type": "uint256"
        },
        {
          "name": "_age",
          "type": "uint256"
        }
      ],
      "payable": false,
      "stateMutability": "view",
      "type": "function"
    },
    {
      "constant": true,
      "inputs": [
        {
          "name": "slot_id",
          "type": "bytes32"
        }
      ],
      "name": "getSlotData",
      "outputs": [
        {
          "name": "",
          "type": "uint256"
        }
      ],
      "payable": false,
      "stateMutability": "view",
      "type": "function"
    },
    {
      "constant": true,
      "inputs": [
        {
          "name": "slot",
          "type": "uint256"
        },
        {
          "name": "key",
          "type": "uint256"
        },
        {
          "name": "offset",
          "type": "uint256"
        }
      ],
      "name": "mapLocation",
      "outputs": [
        {
          "name": "",
          "type": "uint256"
        }
      ],
      "payable": false,
      "stateMutability": "pure",
      "type": "function"
    },
    {
      "constant": false,
      "inputs": [],
      "name": "kill",
      "outputs": [],
      "payable": false,
      "stateMutability": "nonpayable",
      "type": "function"
    }
  ],
  "bytecode": "0x608060405234801561001057600080fd5b50610664806100206000396000f3fe60806040526004361061006d576000357c0100000000000000000000000000000000000000000000000000000000900463ffffffff16806341c0e1b51461007257806380cd557e14610089578063910896e3146100d8578063b2e160bd1461013b578063c444ccc5146101e0575b600080fd5b34801561007e57600080fd5b50610087610284565b005b34801561009557600080fd5b506100c2600480360360208110156100ac57600080fd5b810190808035906020019092919050505061029d565b6040518082815260200191505060405180910390f35b3480156100e457600080fd5b50610125600480360360608110156100fb57600080fd5b810190808035906020019092919080359060200190929190803590602001909291905050506102ad565b6040518082815260200191505060405180910390f35b34801561014757600080fd5b506101506102ed565b6040518080602001858152602001848152602001838152602001828103825286818151815260200191508051906020019080838360005b838110156101a2578082015181840152602081019050610187565b50505050905090810190601f1680156101cf5780820380516001836020036101000a031916815260200191505b509550505050505060405180910390f35b3480156101ec57600080fd5b506102826004803603608081101561020357600080fd5b810190808035906020019064010000000081111561022057600080fd5b82018360208201111561023257600080fd5b8035906020019184600183028401116401000000008311171561025457600080fd5b90919293919293908035906020019092919080359060200190929190803590602001909291905050506104a9565b005b3373ffffffffffffffffffffffffffffffffffffffff16ff5b6000808254905080915050919050565b6000818385604051602001808381526020018281526020019250505060405160208183030381529060405280519060200120600190040190509392505050565b60606000806000600160003373ffffffffffffffffffffffffffffffffffffffff1673ffffffffffffffffffffffffffffffffffffffff168152602001908152602001600020600001600160003373ffffffffffffffffffffffffffffffffffffffff1673ffffffffffffffffffffffffffffffffffffffff16815260200190815260200160002060010154600160003373ffffffffffffffffffffffffffffffffffffffff1673ffffffffffffffffffffffffffffffffffffffff16815260200190815260200160002060020154600160003373ffffffffffffffffffffffffffffffffffffffff1673ffffffffffffffffffffffffffffffffffffffff16815260200190815260200160002060030154838054600181600116156101000203166002900480601f0160208091040260200160405190810160405280929190818152602001828054600181600116156101000203166002900480156104945780601f1061046957610100808354040283529160200191610494565b820191906000526020600020905b81548152906001019060200180831161047757829003601f168201915b50505050509350935093509350935090919293565b60806040519081016040528086868080601f016020809104026020016040519081016040528093929190818152602001838380828437600081840152601f19601f82011690508083019250505050505050815260200184815260200183815260200182815250600160003373ffffffffffffffffffffffffffffffffffffffff1673ffffffffffffffffffffffffffffffffffffffff168152602001908152602001600020600082015181600001908051906020019061056a929190610593565b506020820151816001015560408201518160020155606082015181600301559050505050505050565b828054600181600116156101000203166002900490600052602060002090601f016020900481019282601f106105d457805160ff1916838001178555610602565b82800160010185558215610602579182015b828111156106015782518255916020019190600101906105e6565b5b50905061060f9190610613565b5090565b61063591905b80821115610631576000816000905550600101610619565b5090565b9056fea165627a7a72305820a2cb66db443d98c9a246df763799977c31e7dcd57030432a2ca1b29457a547fb0029",
  "source": "pragma solidity ^0.5.0;\n\ncontract BusinessContract2 {\n  // プロキシコントラクトの変数のslot割り当て\n  address impl;\n\n  struct Person {\n    string name;\n    uint256 height;\n    uint256 weight;\n    uint256 age;\n  }\n\n  mapping (address => Person) persons;\n\n  constructor() public {\n  }\n\n  function addPerson_v2(string calldata _name, uint256 _height, uint256 _weight, uint256 _age) external {\n    persons[msg.sender] = Person(_name, _height, _weight, _age);\n  }\n\n  function getPerson_v2() external view returns (string memory _name, uint256 _height, uint256 _weight, uint256 _age) {\n    return (\n      persons[msg.sender].name,\n      persons[msg.sender].height,\n      persons[msg.sender].weight,\n      persons[msg.sender].age\n    );\n  }\n\n  function getSlotData(bytes32 slot_id) public view returns (uint256){\n    uint r;\n    assembly {\n      r := sload(slot_id) //we load the slot number i\n    }\n    return uint(r);\n  }\n\n  function mapLocation(uint256 slot, uint256 key, uint256 offset) public pure returns (uint256) {\n    return uint256(keccak256(abi.encodePacked(key, slot))) + offset;\n  }\n\n  function kill() public {\n    selfdestruct(msg.sender);\n  }\n\n}\n",
  "sourcePath": "C:/Users/NaotoHama/Documents/blockchain/sample-upgradable-contract/contracts/BusinessContract_v2.sol",
  "compiler": {
    "name": "solc",
    "version": "0.5.0+commit.1d4f565a.Emscripten.clang"
  },
  "schemaVersion": "3.0.6",
  "updatedAt": "2019-04-11T14:47:46.798Z",
  "devdoc": {
    "methods": {}
  },
  "userdoc": {
    "methods": {}
  }
}